{
  "_format": "hh-sol-artifact-1",
  "contractName": "MatchManager",
  "sourceName": "contracts/MatchManager.sol",
  "abi": [
    {
      "inputs": [],
      "stateMutability": "nonpayable",
      "type": "constructor"
    },
    {
      "inputs": [],
      "name": "ChallengerAlreadySet",
      "type": "error"
    },
    {
      "inputs": [],
      "name": "ECDSAInvalidSignature",
      "type": "error"
    },
    {
      "inputs": [
        {
          "internalType": "uint256",
          "name": "length",
          "type": "uint256"
        }
      ],
      "name": "ECDSAInvalidSignatureLength",
      "type": "error"
    },
    {
      "inputs": [
        {
          "internalType": "bytes32",
          "name": "s",
          "type": "bytes32"
        }
      ],
      "name": "ECDSAInvalidSignatureS",
      "type": "error"
    },
    {
      "inputs": [],
      "name": "InvalidGoalTarget",
      "type": "error"
    },
    {
      "inputs": [],
      "name": "InvalidSignature",
      "type": "error"
    },
    {
      "inputs": [],
      "name": "InvalidStakeCombo",
      "type": "error"
    },
    {
      "inputs": [],
      "name": "MatchAlreadyCompleted",
      "type": "error"
    },
    {
      "inputs": [],
      "name": "MatchClosed",
      "type": "error"
    },
    {
      "inputs": [],
      "name": "MatchNotOpen",
      "type": "error"
    },
    {
      "inputs": [],
      "name": "NotCreator",
      "type": "error"
    },
    {
      "inputs": [],
      "name": "NotParticipant",
      "type": "error"
    },
    {
      "inputs": [],
      "name": "NotWinner",
      "type": "error"
    },
    {
      "inputs": [],
      "name": "ReentrancyGuardReentrantCall",
      "type": "error"
    },
    {
      "inputs": [
        {
          "internalType": "address",
          "name": "token",
          "type": "address"
        }
      ],
      "name": "SafeERC20FailedOperation",
      "type": "error"
    },
    {
      "inputs": [],
      "name": "SelfJoinNotAllowed",
      "type": "error"
    },
    {
      "inputs": [],
      "name": "TimeoutAlreadyClaimed",
      "type": "error"
    },
    {
      "inputs": [],
      "name": "TimeoutNotReached",
      "type": "error"
    },
    {
      "anonymous": false,
      "inputs": [
        {
          "indexed": true,
          "internalType": "uint256",
          "name": "matchId",
          "type": "uint256"
        },
        {
          "indexed": true,
          "internalType": "address",
          "name": "creator",
          "type": "address"
        },
        {
          "indexed": false,
          "internalType": "uint256",
          "name": "refundAmount",
          "type": "uint256"
        }
      ],
      "name": "MatchCancelled",
      "type": "event"
    },
    {
      "anonymous": false,
      "inputs": [
        {
          "indexed": true,
          "internalType": "uint256",
          "name": "matchId",
          "type": "uint256"
        },
        {
          "indexed": true,
          "internalType": "address",
          "name": "creator",
          "type": "address"
        },
        {
          "indexed": false,
          "internalType": "uint8",
          "name": "goalsTarget",
          "type": "uint8"
        },
        {
          "indexed": false,
          "internalType": "bool",
          "name": "isFree",
          "type": "bool"
        }
      ],
      "name": "MatchCreated",
      "type": "event"
    },
    {
      "anonymous": false,
      "inputs": [
        {
          "indexed": true,
          "internalType": "uint256",
          "name": "matchId",
          "type": "uint256"
        },
        {
          "indexed": true,
          "internalType": "address",
          "name": "challenger",
          "type": "address"
        }
      ],
      "name": "MatchJoined",
      "type": "event"
    },
    {
      "anonymous": false,
      "inputs": [
        {
          "indexed": true,
          "internalType": "uint256",
          "name": "matchId",
          "type": "uint256"
        },
        {
          "indexed": true,
          "internalType": "address",
          "name": "winner",
          "type": "address"
        },
        {
          "indexed": false,
          "internalType": "uint256",
          "name": "totalPayout",
          "type": "uint256"
        }
      ],
      "name": "MatchResult",
      "type": "event"
    },
    {
      "anonymous": false,
      "inputs": [
        {
          "indexed": true,
          "internalType": "uint256",
          "name": "matchId",
          "type": "uint256"
        },
        {
          "indexed": true,
          "internalType": "address",
          "name": "claimer",
          "type": "address"
        }
      ],
      "name": "MatchTimeoutClaimed",
      "type": "event"
    },
    {
      "inputs": [],
      "name": "MATCH_TIMEOUT",
      "outputs": [
        {
          "internalType": "uint256",
          "name": "",
          "type": "uint256"
        }
      ],
      "stateMutability": "view",
      "type": "function"
    },
    {
      "inputs": [
        {
          "internalType": "uint256",
          "name": "matchId",
          "type": "uint256"
        }
      ],
      "name": "cancelMatch",
      "outputs": [],
      "stateMutability": "nonpayable",
      "type": "function"
    },
    {
      "inputs": [
        {
          "internalType": "uint256",
          "name": "matchId",
          "type": "uint256"
        }
      ],
      "name": "claimTimeout",
      "outputs": [],
      "stateMutability": "nonpayable",
      "type": "function"
    },
    {
      "inputs": [
        {
          "internalType": "uint8",
          "name": "goalsTarget",
          "type": "uint8"
        },
        {
          "internalType": "bool",
          "name": "isFree",
          "type": "bool"
        },
        {
          "internalType": "uint256",
          "name": "stakeAmount",
          "type": "uint256"
        },
        {
          "internalType": "address",
          "name": "stakeToken",
          "type": "address"
        }
      ],
      "name": "createMatch",
      "outputs": [
        {
          "internalType": "uint256",
          "name": "matchId",
          "type": "uint256"
        }
      ],
      "stateMutability": "payable",
      "type": "function"
    },
    {
      "inputs": [
        {
          "internalType": "uint256",
          "name": "matchId",
          "type": "uint256"
        }
      ],
      "name": "joinMatch",
      "outputs": [],
      "stateMutability": "payable",
      "type": "function"
    },
    {
      "inputs": [],
      "name": "matchCount",
      "outputs": [
        {
          "internalType": "uint256",
          "name": "",
          "type": "uint256"
        }
      ],
      "stateMutability": "view",
      "type": "function"
    },
    {
      "inputs": [
        {
          "internalType": "uint256",
          "name": "",
          "type": "uint256"
        }
      ],
      "name": "matches",
      "outputs": [
        {
          "internalType": "address",
          "name": "creator",
          "type": "address"
        },
        {
          "internalType": "address",
          "name": "challenger",
          "type": "address"
        },
        {
          "internalType": "address",
          "name": "winner",
          "type": "address"
        },
        {
          "internalType": "uint8",
          "name": "goalsTarget",
          "type": "uint8"
        },
        {
          "internalType": "bool",
          "name": "isFree",
          "type": "bool"
        },
        {
          "internalType": "bool",
          "name": "isOpen",
          "type": "bool"
        },
        {
          "internalType": "bool",
          "name": "isCompleted",
          "type": "bool"
        },
        {
          "internalType": "uint256",
          "name": "stakeAmount",
          "type": "uint256"
        },
        {
          "internalType": "address",
          "name": "stakeToken",
          "type": "address"
        },
        {
          "internalType": "uint256",
          "name": "createdAt",
          "type": "uint256"
        },
        {
          "internalType": "bool",
          "name": "timeoutClaimed",
          "type": "bool"
        }
      ],
      "stateMutability": "view",
      "type": "function"
    },
    {
      "inputs": [],
      "name": "owner",
      "outputs": [
        {
          "internalType": "address",
          "name": "",
          "type": "address"
        }
      ],
      "stateMutability": "view",
      "type": "function"
    },
    {
      "inputs": [
        {
          "internalType": "uint256",
          "name": "matchId",
          "type": "uint256"
        },
        {
          "internalType": "address",
          "name": "winner",
          "type": "address"
        },
        {
          "internalType": "bytes",
          "name": "signature",
          "type": "bytes"
        }
      ],
      "name": "reportResult",
      "outputs": [],
      "stateMutability": "nonpayable",
      "type": "function"
    },
    {
      "inputs": [
        {
          "internalType": "address",
          "name": "signer",
          "type": "address"
        }
      ],
      "name": "setTrustedSigner",
      "outputs": [],
      "stateMutability": "nonpayable",
      "type": "function"
    },
    {
      "inputs": [
        {
          "internalType": "address",
          "name": "newOwner",
          "type": "address"
        }
      ],
      "name": "transferOwnership",
      "outputs": [],
      "stateMutability": "nonpayable",
      "type": "function"
    },
    {
      "inputs": [],
      "name": "trustedSigner",
      "outputs": [
        {
          "internalType": "address",
          "name": "",
          "type": "address"
        }
      ],
      "stateMutability": "view",
      "type": "function"
    }
  ],
  "bytecode": "0x608060405234801561001057600080fd5b506001600081905580546001600160a01b03191633179055611402806100376000396000f3fe6080604052600436106100a75760003560e01c8063926590dd11610064578063926590dd14610275578063d02c8cdf1461028c578063e9affe2f146102ac578063f2fde38b146102bf578063f74d5480146102df578063feb8c438146102ff57600080fd5b80634768d4ef146100ac57806356a1c701146101b75780635f6b9b2f146101d957806379c4264b146101f957806386e773f11461021d5780638da5cb5b1461023d575b600080fd5b3480156100b857600080fd5b506101446100c7366004611223565b600360208190526000918252604090912080546001820154600283015493830154600484015460058501546006909501546001600160a01b0394851696938516958486169560ff600160a01b8704811696600160a81b8104821696600160b01b8204831696600160b81b909204831695909491909316929091168b565b604080516001600160a01b039c8d1681529a8c1660208c0152988b16988a019890985260ff9096166060890152931515608088015291151560a0870152151560c086015260e085015293909316610100830152610120820192909252901515610140820152610160015b60405180910390f35b3480156101c357600080fd5b506101d76101d2366004611258565b610312565b005b3480156101e557600080fd5b506101d76101f436600461127a565b61037f565b34801561020557600080fd5b5061020f60025481565b6040519081526020016101ae565b34801561022957600080fd5b506101d7610238366004611223565b61062f565b34801561024957600080fd5b5060015461025d906001600160a01b031681565b6040516001600160a01b0390911681526020016101ae565b34801561028157600080fd5b5061020f6201518081565b34801561029857600080fd5b506101d76102a7366004611223565b6107a9565b61020f6102ba366004611301565b6108c2565b3480156102cb57600080fd5b506101d76102da366004611258565b610c03565b3480156102eb57600080fd5b5060045461025d906001600160a01b031681565b6101d761030d366004611223565b610cb3565b6001546001600160a01b0316331461035d5760405162461bcd60e51b81526020600482015260096024820152682737ba1037bbb732b960b91b60448201526064015b60405180910390fd5b600480546001600160a01b0319166001600160a01b0392909216919091179055565b610387610de7565b60008481526003602052604090206002810154600160b81b900460ff16156103c25760405163c698e54360e01b815260040160405180910390fd5b80546001600160a01b031633148015906103e9575060018101546001600160a01b03163314155b156104075760405163721c7c6760e11b815260040160405180910390fd5b80546001600160a01b03858116911614801590610434575060018101546001600160a01b03858116911614155b156104525760405163721c7c6760e11b815260040160405180910390fd5b336001600160a01b0385161461047b576040516330c6392160e11b815260040160405180910390fd5b600085856040516020016104ab92919091825260601b6bffffffffffffffffffffffff1916602082015260340190565b60405160208183030381529060405280519060200120905060006104fc827f19457468657265756d205369676e6564204d6573736167653a0a3332000000006000908152601c91909152603c902090565b905060006105408287878080601f016020809104026020016040519081016040528093929190818152602001838380828437600092019190915250610e1192505050565b6004549091506001600160a01b0380831691161461057157604051638baa579f60e01b815260040160405180910390fd5b600284018054600163ff00000160a01b0319166001600160a01b03891617600160b81b1790819055600090600160a81b900460ff166105d65760038501546105ba906002611373565b60048601549091506105d6906001600160a01b03168983610e3d565b876001600160a01b0316897f6d699c683f1d645550abc083d9837301c73759c84dd8ce2884defaa6cdb5efb38360405161061291815260200190565b60405180910390a350505050506106296001600055565b50505050565b610637610de7565b60008181526003602052604090206002810154600160b81b900460ff16806106635750600681015460ff165b156106815760405163f1bf654560e01b815260040160405180910390fd5b620151808160050154610694919061138a565b4210156106b4576040516326c015ab60e21b815260040160405180910390fd5b60068101805460ff191660019081179091558101546001600160a01b031615610738576002810154600160a81b900460ff166107335760048101548154600383015461070d926001600160a01b03908116921690610e3d565b600481015460018201546003830154610733926001600160a01b03908116921690610e3d565b61076e565b6002810154600160a81b900460ff1661076e5760048101548154600383015461076e926001600160a01b03908116921690610e3d565b604051339083907ff769baa45efd3d682e9c4b4a2e8712da02a2badd53acb625f370e9c2317c7d7690600090a3506107a66001600055565b50565b600081815260036020526040902080546001600160a01b031633146107e1576040516393687c0b60e01b815260040160405180910390fd5b6002810154600160b01b900460ff1661080d5760405163644322bf60e11b815260040160405180910390fd5b60018101546001600160a01b03161561083957604051637795755360e11b815260040160405180910390fd5b60028101805461ffff60b01b1916600160b81b1790819055600090600160a81b900460ff166108865750600381015460048201548254610886916001600160a01b03908116911683610e3d565b604051818152339084907f0d1bcb6d0d8bd3f22c52ec30e490a7559bd1f2fbe6cbedfc5749dfbf0c8bd2ea9060200160405180910390a3505050565b600060ff851615806108d75750600a8560ff16115b156108f557604051637f72141560e11b815260040160405180910390fd5b83158015610901575082155b1561091f5760405163c4b2b5fd60e01b815260040160405180910390fd5b83801561093d57508215158061093d57506001600160a01b03821615155b1561095b5760405163c4b2b5fd60e01b815260040160405180910390fd5b8361096f5761096a8284610efd565b61098e565b341561098e5760405163c4b2b5fd60e01b815260040160405180910390fd5b60026000815461099d9061139d565b9190508190559050604051806101600160405280336001600160a01b0316815260200160006001600160a01b0316815260200160006001600160a01b031681526020018660ff1681526020018515158152602001600115158152602001600015158152602001848152602001836001600160a01b03168152602001428152602001600015158152506003600083815260200190815260200160002060008201518160000160006101000a8154816001600160a01b0302191690836001600160a01b0316021790555060208201518160010160006101000a8154816001600160a01b0302191690836001600160a01b0316021790555060408201518160020160006101000a8154816001600160a01b0302191690836001600160a01b0316021790555060608201518160020160146101000a81548160ff021916908360ff16021790555060808201518160020160156101000a81548160ff02191690831515021790555060a08201518160020160166101000a81548160ff02191690831515021790555060c08201518160020160176101000a81548160ff02191690831515021790555060e082015181600301556101008201518160040160006101000a8154816001600160a01b0302191690836001600160a01b0316021790555061012082015181600501556101408201518160060160006101000a81548160ff021916908315150217905550905050336001600160a01b0316817f89e27276af1f150c2cae2db271518bcde8eca9e4ed5ea3baed33cb95b681ca548787604051610bf392919060ff9290921682521515602082015260400190565b60405180910390a3949350505050565b6001546001600160a01b03163314610c495760405162461bcd60e51b81526020600482015260096024820152682737ba1037bbb732b960b91b6044820152606401610354565b6001600160a01b038116610c915760405162461bcd60e51b815260206004820152600f60248201526e496e76616c6964206164647265737360881b6044820152606401610354565b600180546001600160a01b0319166001600160a01b0392909216919091179055565b60008181526003602052604090206002810154600160b01b900460ff16610cec5760405162493ad760e81b815260040160405180910390fd5b60018101546001600160a01b031615610d1857604051637795755360e11b815260040160405180910390fd5b80546001600160a01b03163303610d4257604051630c0a86f160e11b815260040160405180910390fd5b6001810180546001600160a01b0319163317905560028101805460ff60b01b191690819055600160a81b900460ff16610d975760048101546003820154610d92916001600160a01b031690610efd565b610db6565b3415610db65760405163c4b2b5fd60e01b815260040160405180910390fd5b604051339083907f50d6e5d288766a7340b6110b6738cac822c48c128a47399df2fad303041f8d5090600090a35050565b600260005403610e0a57604051633ee5aeb560e01b815260040160405180910390fd5b6002600055565b600080600080610e218686610f45565b925092509250610e318282610f92565b50909150505b92915050565b6001600160a01b038316610ee3576000826001600160a01b03168260405160006040518083038185875af1925050503d8060008114610e98576040519150601f19603f3d011682016040523d82523d6000602084013e610e9d565b606091505b50509050806106295760405162461bcd60e51b815260206004820152601260248201527113905512559157d4d1539117d1905253115160721b6044820152606401610354565b826106296001600160a01b038216848461104b565b505050565b6001600160a01b038216610f2f57803414610f2b5760405163c4b2b5fd60e01b815260040160405180910390fd5b5050565b81610ef86001600160a01b0382163330856110aa565b60008060008351604103610f7f5760208401516040850151606086015160001a610f71888285856110e3565b955095509550505050610f8b565b50508151600091506002905b9250925092565b6000826003811115610fa657610fa66113b6565b03610faf575050565b6001826003811115610fc357610fc36113b6565b03610fe15760405163f645eedf60e01b815260040160405180910390fd5b6002826003811115610ff557610ff56113b6565b036110165760405163fce698f760e01b815260048101829052602401610354565b600382600381111561102a5761102a6113b6565b03610f2b576040516335e2f38360e21b815260048101829052602401610354565b6040516001600160a01b03838116602483015260448201839052610ef891859182169063a9059cbb906064015b604051602081830303815290604052915060e01b6020820180516001600160e01b0383818316178352505050506111b2565b6040516001600160a01b0384811660248301528381166044830152606482018390526106299186918216906323b872dd90608401611078565b600080807f7fffffffffffffffffffffffffffffff5d576e7357a4501ddfe92f46681b20a084111561111e57506000915060039050826111a8565b604080516000808252602082018084528a905260ff891692820192909252606081018790526080810186905260019060a0016020604051602081039080840390855afa158015611172573d6000803e3d6000fd5b5050604051601f1901519150506001600160a01b03811661119e575060009250600191508290506111a8565b9250600091508190505b9450945094915050565b600080602060008451602086016000885af1806111d5576040513d6000823e3d81fd5b50506000513d915081156111ed5780600114156111fa565b6001600160a01b0384163b155b1561062957604051635274afe760e01b81526001600160a01b0385166004820152602401610354565b60006020828403121561123557600080fd5b5035919050565b80356001600160a01b038116811461125357600080fd5b919050565b60006020828403121561126a57600080fd5b6112738261123c565b9392505050565b6000806000806060858703121561129057600080fd5b843593506112a06020860161123c565b9250604085013567ffffffffffffffff808211156112bd57600080fd5b818701915087601f8301126112d157600080fd5b8135818111156112e057600080fd5b8860208285010111156112f257600080fd5b95989497505060200194505050565b6000806000806080858703121561131757600080fd5b843560ff8116811461132857600080fd5b93506020850135801515811461133d57600080fd5b9250604085013591506113526060860161123c565b905092959194509250565b634e487b7160e01b600052601160045260246000fd5b8082028115828204841417610e3757610e3761135d565b80820180821115610e3757610e3761135d565b6000600182016113af576113af61135d565b5060010190565b634e487b7160e01b600052602160045260246000fdfea26469706673582212204bf15442808237a7f45d733fa5527fd0f4cba16d815ace88f3dbfa2c90ebae9164736f6c63430008180033",
  "linkReferences": {},
  "deployedLinkReferences": {}
}